:020000040800F2
:1000000008060020A90100089F1800082B17000807
:100010009D180008B1050008851D000800000000BB
:100020000000000000000000000000009719000818
:100030004906000800000000C118000899190008CE
:10004000C3010008C3010008C3010008C301000880
:10005000C3010008C30100084B060008C3010008E3
:10006000C3010008C3010008C3010008C301000860
:10007000C3010008C3010008C3010008C301000850
:10008000C3010008C3010008C3010008000000000C
:10009000000000000000000000000000C301000894
:1000A000C3010008C3010008C3010008C301000820
:1000B000C3010008C3010008C3010008C301000810
:1000C000C3010008C3010008C3010008C5180008E7
:1000D000C3010008C3010008C301000800000000BC
:1000E000C3010008C3010008C301000800000000AC
:1000F000000000000000000000000000C301000834
:1001000000000000C3010008C3010008C30100088B
:1001100000000000000000000000000000000000DF
:10012000C3010008C3010008B5050008C3010008A9
:10013000C3010008000000000000000000000000F3
:10014000000000000000000000000000C3010008E3
:10015000C3010008C3010008C1050008C30100086D
:10016000C3010008C30100080000000000000000F7
:10017000000000000000000000000000000000007F
:1001800000000000C30100080000000000000000A3
:10019000C3010008DFF80CD000F08CF800480047DD
:1001A00061220008080600200648804706480047EC
:1001B000FEE7FEE7FEE7FEE7FEE7FEE7FEE7FEE717
:1001C000FEE7FEE7211A0008950100082DE9F05F1F
:1001D0000546002092469B468846064681464024B6
:1001E0001BE0284641464746224600F053F8534656
:1001F0005A46C01A914110D311461846224600F0C3
:100200003AF82D1A67EB01084F46224601200021DB
:1002100000F031F817EB00094E41201EA4F1010453
:10022000DFDC484631462A464346BDE8F09F40EAB7
:1002300001039B0703D009E008C9121F08C0042A64
:10024000FAD203E011F8013B00F8013B521EF9D24B
:100250007047D2B201E000F8012B491EFBD2704773
:100260000022F6E710B513460A4604461946FFF782
:10027000F0FF204610BD202A04DB203A00FA02F1EC
:10028000002070479140C2F1200320FA03F3194384
:1002900090407047202A04DB203A21FA02F0002126
:1002A000704721FA02F3D040C2F120029140084386
:1002B00019467047064C074D06E0E06840F0010320
:1002C00094E8070098471034AC42F6D3FFF766FF76
:1002D000682300088823000870B586B0142168469A
:1002E000FFF7BEFF06208DF800000121684600F0F0
:1002F00025F90A2000F0FAFA14216846FFF7B0FF4A
:1003000011208DF800000121684600F017F9142132
:100310006846FFF7A5FF41208DF8000000248DF806
:10032000014064208DF802000321684600F006F9C0
:1003300014216846FFF794FF42208DF800008DF8E5
:10034000014010208DF802000321684600F0F6F805
:1003500014216846FFF784FF43208DF800008DF8D4
:100360000140D6208DF802000321684600F0E6F82F
:1003700014216846FFF774FF44268DF800608DF85D
:1003800001400D208DF802000321684600F0D6F8E8
:1003900014216846FFF764FF8DF800608DF8014076
:1003A00001258DF802500321684600F0C7F814219A
:1003B0006846FFF755FF8DF800608DF801408DF815
:1003C00002500321684600F0B9F814216846FFF78F
:1003D00047FF57208DF800008DF8014002268DF868
:1003E00002600321684600F0A9F814216846FFF76F
:1003F00037FF45208DF8000063208DF801008DF84F
:10040000046007208DF802408DF805008DF8035038
:100410000621684600F092F814216846FFF720FF95
:100420004D208DF800008DF801408DF80250032119
:10043000684600F083F814216846FFF711FF4E204C
:100440008DF800008DF801408DF8025003216846B8
:1004500000F074F8012000F049FA06B070BD000009
:100460002DE9F041DFF8A4808CB000220221404643
:1004700000F05AFB00F086F8642000F037FAFFF72E
:100480002BFF2025224C01264FF47A77142106A851
:10049000FFF7E6FE8DF818508DF819600022102144
:1004A000204600F041FB042301AA06A91948009741
:1004B00000F03EFF01221021204600F035FB9DF8A0
:1004C000070000909DF806309DF805209DF8041067
:1004D00011A001F059FC9DF806009028D6D16420A7
:1004E00000F004FA01220221404600F01DFB142115
:1004F00006A8FFF7B5FE10208DF81800012106A808
:1005000000F01CF80CB0BDE8F081000000040240CF
:1005100000000240AC000020414453313239342005
:100520004944203D2025303278202530327820255E
:1005300030327820253032780D0A000070B50F4E29
:100540000C46054686B000221021304600F0ECFA39
:100550004FF47A700090234601AA2946084800F01B
:10056000E7FE044601221021304600F0DDFA4FF488
:100570004870401EFDD206B0204670BD000002400B
:10058000AC00002070B5094D4FF480640022214674
:10059000284600F0C9FA012000F0A8F921462846B3
:1005A000BDE87040012200F0BFBA00000004024024
:1005B000FEE70000014800F05FB8000044010020A1
:1005C000014800F059B80000A40100200168182378
:1005D000CAB2103AB2FBF3F2054B6FF30901032ADA
:1005E0009B5CC36500D9091D816508467047000002
:1005F0004823000810B5014600208B698A6A4FF035
:10060000C07453B1B3F5005F15D072B1012A0CD09C
:10061000022A0AD0032A09D104E01AB1012A06D01D
:10062000022A03D1C96AC90100D5012010BDC96AD7
:10063000A142FAD010BD002AF7D0012AF2D0022A36
:10064000F3D0032AF3D010BD7047012000F09CB90D
:10065000704790F83510022903D0802141650120B0
:100660007047052180F835100068016821F001010C
:1006700001600020704700002DE9F84304464FF068
:100680000009CDF8009063484FF41651A56D00683D
:10069000B0FBF1F72E6894F85C10082000FA01F125
:1006A00031420FD021680A6852070BD50A6822F040
:1006B00004020A6094F85C108840A860606D40F005
:1006C0000100606594F85C104FF0010808FA01F031
:1006D000304208D021684969090604D5A860606DD8
:1006E00040F00200606594F85C10042088403042BD
:1006F00008D021680968890704D5A860606D40F0BA
:100700000400606594F85C1010208840304218D0D6
:1007100021680968090714D5A860206801684903A1
:1007200004D50068000308D5A16C07E00168C9057D
:1007300003D4016821F008010160216C09B1204651
:10074000884794F85C1020208840304231D02168DE
:100750000968C9062DD5A86094F8350005282068D9
:10076000016806D0490347D5006800031DD4616CB9
:100770001CE021F0160101602068416921F0800130
:100780004161206C08B9A06C20B12068016821F09B
:100790000801016094F85C103F208840A86084F84C
:1007A000349084F83580216D1FE0E16B09B120465B
:1007B0008847606D00282BD0606DC00714D00520DD
:1007C00084F835002068016821F00101016000987B
:1007D000401C0090B84203D820680068C007F6D1DA
:1007E00084F8349084F83580E16C002910D001B091
:1007F0002046BDE8F04308470168C905D5D4016823
:1008000021F01001016084F8349084F83580CCE741
:10081000BDE8F883140000202DE9F041044600F003
:1008200089F906465CB1002584F83450022084F82A
:1008300035002068016821F0010101600DE0012010
:10084000BDE8F08100F076F9801B052805D920204D
:100850006065032084F83500F2E720680068C0076F
:10086000F0D12268116820480140D4E901031843FF
:10087000D4E903363343184363691843A369184323
:10088000E3691843236A18430843616A042903D1C2
:10089000D4E90B1319430843106020684069666A65
:1008A00020F0070130460E43012704280CD1A06A2E
:1008B0000643E06A40B12046FFF79CFE20B140208D
:1008C000606584F83570BAE7206846612046FFF716
:1008D0007DFE94F85C203F2191408160656584F83D
:1008E00035700020ACE700003F8010F070B5044682
:1008F00000F020F90546601C02D00448007804444A
:1009000000F018F9401BA042FAD370BD0800002087
:1009100030B5A1B00446402111A8FFF7A1FC012C7D
:1009200027D1154C2078002823D140211348FFF708
:1009300097FC402101A8FFF793FC114D00221021E4
:10094000284600F0F1F84FF47A7000901B2301AABA
:1009500011A90C4800F0ECFC01221021284600F0FF
:10096000E3F818220DF107010448FFF760FC0120AD
:10097000207021B030BD0000000000206A0000207F
:1009800000000240AC000020044910B50A68024291
:1009900002D00860FFF7BCFF10BD0000143C01400E
:1009A0002DE9F84FDFF860B100224FF001084FF059
:1009B000030A4FF00F090BF1040E00BF0B6808FA91
:1009C00002F42340A3426ED14D68022D01D0122DB6
:1009D0000ED1D50800EB850CDCF820505607F70E39
:1009E00009FA07F6B5430E69BE402E43CCF82060E5
:1009F000066855000F790AFA05FC07F0030726EA96
:100A00000C06AF40374307604E68012E05D0022E1A
:100A100003D0112E01D0122E0ED18668CF6826EA9F
:100A20000C06AF40374387604668A6430C79C4F391
:100A30000014944034434460C6688C6826EA0C066F
:100A4000AC403443C4604C68E40056D52F4C256854
:100A500045F480452560246822F0030504F48044B1
:100A600000942B4C2E19D6F8084895072F0F09FA39
:100A700007F5AC43274DA84201D1002515E0264DCE
:100A8000A84201D1012510E0244DA84201D1022540
:100A90000BE0234DA84201D1032506E0214DA842D9
:100AA00002D1042501E028E00725BD402543C6F812
:100AB0000858DBF800405D464E689C43F60300D5BD
:100AC0001C432C60DEF8004075464E689C43B6031C
:100AD00000D51C432C600C4D08352C684E689C4397
:100AE000F60200D51C432C60074D0C352C684E686F
:100AF0009C43B60200D51C432C60521C102AFFF404
:100B00005DAFBDE8F88F0000003C01404438024072
:100B10000030014000000240000402400008024092
:100B2000000C0240001002400AB1816170470904C4
:100B3000FBE70000014880687047000008000020C3
:100B400002488168027811448160704708000020E3
:100B50000B4810B5016841F400710160016841F46F
:100B600080610160016841F480710160032000F040
:100B70006DF8002000F006F800F024F8002010BD09
:100B8000003C024070B50D4D04464FF47A71287850
:100B9000B1FBF0F00A490968B1FBF0F000F0B4FCD9
:100BA00048B9102C07D200222146501E00F02EF822
:100BB00000206C6070BD012070BD000008000020A6
:100BC000140000200A4808B5016841F48041016022
:100BD000006800F4804000900548001F016841F063
:100BE00080510160006800F08050009008BD000056
:100BF0004438024000F01F0201219140400980006A
:100C000000F1E020C0F8001170470000F0B40E4B76
:100C10001B680C46C3F30223C3F10705042D00D95A
:100C20000425191D072901D2002300E0DB1E01263F
:100C300006FA05F1491E214099409E40761E164055
:100C40003143F0BC00F02CBE0CED00E0064900F092
:100C5000070208684FF6FF03184040EA0220034AE3
:100C600010430860704700000CED00E00000FA053A
:100C70002DE9F0470E46050065D0DFF81481D8F85D
:100C80000000F7B200F00F00B04207D288F8007001
:100C9000D8F8000000F00F00B04254D128683D4C55
:100CA000810712D5400703D5206840F4E05020604A
:100CB0002878000703D5206840F460402060206851
:100CC000A96820F0F000084320602878C0072DD0E4
:100CD000304968680839012812D0022813D0032847
:100CE00011D00968890700292DDA216821F0030154
:100CF00001432160FFF71EFF814641F2883A0EE072
:100D000009688903EFE709688901ECE7FFF712FF3B
:100D1000A0EB0901514502D90320BDE8F087206806
:100D2000696800F00C00B0EB810FEFD1D8F800102B
:100D3000404601F00F01B14207D90770006800F08A
:100D40000F00B04201D00120E7E72878400705D521
:100D50002068E96820F4E050084320602878000704
:100D600006D52068296920F4604040EAC10020606F
:100D700000F036F82168084AC1F30311515CC840FD
:100D8000064908600020FFF7FDFE0020C5E70000CF
:100D9000003C0240083802405023000814000020A4
:100DA0000448054900680968044AC1F38221515C7E
:100DB000C840704714000020083802406023000833
:100DC0000448054900680968044AC1F34231515C8E
:100DD000C840704714000020083802406023000813
:100DE000154810B5006810F00C02144813D01449CF
:100DF000042A0FD0082A0ED10F4C241F2268236822
:100E000002F03F025B0207D52068C0F38810A0FB08
:100E1000010106E0084610BD2168C1F38811A1FB5D
:100E200000010023FFF7D2F92168C1F30141491CF9
:100E30004900B0FBF1F010BD083802400024F40076
:100E400040787D012DE9F84F050076D02878DFF84D
:100E5000F8B2BE4CC00749D0DBF800105846C1F3C9
:100E60008101012908D00068C0F3810002280AD15D
:100E7000201D0068400206D52068800336D56868CA
:100E80000028E2D032E06868B0F5803F10D0B0F5BD
:100E9000A02F206810D020F480302060206820F43B
:100EA000802020606868A0B1FFF744FE06460CE091
:100EB000206840F48030F4E740F480202060F7E7B9
:100EC000FFF738FE801B642873D820688003F7D5AD
:100ED0000CE0FFF72FFE064605E000BFFFF72AFEF5
:100EE000801B6428F0D820688003F7D42878DFF8C6
:100EF000608280074FF000093ED5DBF800105846AD
:100F000011F00C0F09D00068C0F3810002280BD14A
:100F10008D48001F0068400206D42068800715D560
:100F2000E868012809D111E0E868B8B10120C8F8E3
:100F30000000FFF7FFFD064605E002E1FFF7FAFDBE
:100F4000801B0228C0D820688007F7D5206829694F
:100F500020F0F80040EAC10020600DE0C8F80090E1
:100F6000FFF7E8FD064604E0FFF7E4FD801B0228DA
:100F70001FD820688007F7D42878000722D5724E42
:100F8000744869696C3671B101210160FFF7D2FDC7
:100F9000074604E0FFF7CEFDC01B022809D83068E1
:100FA0008007F7D50EE0C0F80090FFF7C3FD0746B5
:100FB00005E083E0FFF7BEFDC01B02287ED8306845
:100FC0008007F7D42878400768D5DFF87CA1002790
:100FD0000AF1380ADAF80000C0000BD4DAF8001081
:100FE00041F08051CAF80010DAF80000012700F043
:100FF00080500090584E3068C00510D4306840F4DE
:1010000080703060FFF796FD009005E0FFF792FDDD
:101010000099401A022851D83068C005F6D54A4ECA
:10102000A868683601280FD00528306810D020F055
:1010300001003060306820F004003060A868B8B16A
:10104000FFF778FD00900FE0306840F00100F4E712
:1010500040F004003060F7E7FFF76CFD0099411A9B
:1010600041F28830814264D830688007F4D50EE0C0
:10107000FFF760FD009007E0FFF75CFD0099411A63
:1010800041F28830814254D830688007F4D42FB1BF
:10109000DAF8001021F08051CAF80010A869C0B336
:1010A000DBF80010C1F3810102294AD0022848462A
:1010B00007D0C8F86000FFF73DFD00E039E00546C5
:1010C0003AE04746C8F86000FFF734FD064604E002
:1010D000FFF730FD801B02282BD820688001F7D451
:1010E000D5E907010843A96A1C4A490802EB0141F6
:1010F0006A6A41EA8211084395F82C1040EA0161BE
:101100001148001F016001203866FFF713FD0546F6
:1011100005E014E0FFF70EFD401B022809D8206807
:101120008001F7D50BE000BFFFF704FD401B02284C
:1011300002D90320BDE8F88F20688001F4D4002094
:10114000F8E70120F6E700000838024000380240C6
:1011500000004742800E4742007000400000FFFF41
:101160007047000038B504460068426881684B0645
:1011700005D4CB0703D0530601D5216C04E08B07BF
:1011800007D5130605D5616C01B02046BDE8304097
:10119000084711F4B07F48D0930646D54B060AD5D0
:1011A00094F85130032B3DD0636D43F00403636525
:1011B000C368836800938B0609D5636D43F0010310
:1011C000636583680093036823F040030360C805E8
:1011D00006D5606D40F0080060652068806800906A
:1011E000606D002821D02068416821F0E001416055
:1011F000012084F85100900718D02068416821F040
:10120000030141600B4DE06C18B10565E06CFFF720
:1012100020FAA06C002808D00565A06CBDE8384015
:10122000FFF717BAC1688068009038BD2046FFF705
:1012300097FF38BDF118000870B5040005D00025EF
:10124000A56294F8510010B106E0012070BD84F849
:101250005050204600F030F8022084F851002068F9
:10126000016821F040010160D4E901010843D4E99B
:1012700003121143084361690843218B01F4007193
:101280000843E1690843216A0843A16A08432168C9
:101290000860A069042101EA1040616A08432168DE
:1012A00048602068C16921F40061C1616565012061
:1012B00084F85100002070BD10B586B0044614219A
:1012C0006846FEF7CDFF17492068884228D11648A6
:1012D0000021026842F480520260006800F48050ED
:1012E000059011481438026842F00102026000685B
:1012F00000F001000590E02000900220CDE90101FE
:10130000032003900520049069460848FFF748FB36
:10131000002211462320FFF779FC2320FFF76AFC07
:1013200006B010BD003001404438024000000240C9
:101330002DE9F84F044690F8500000260A9F9A467F
:1013400093460D464FF0010801280ED0012084F885
:101350005000FFF7EFFB814694F8510061680128C7
:101360000CD0B1F5827F07D102E00220BDE8F88FF2
:10137000A16809B9042801D00226BDE055B1BBF12E
:10138000000F07D0BAF1000F04D094F851000128E3
:1013900002D004E00126AFE0052084F851000020CF
:1013A0006065C4F838B0A4F83EA0A4F83CA025635A
:1013B000A4F836A0A4F834A0206460642068016812
:1013C000490603D4016841F040010160E068B0F5CE
:1013D000006F606804D0E8B3E08E01283BD06AE07B
:1013E00010B1E08E01282ED1216835F8020BC860BB
:1013F000E08E401EE08626E0B8F1000F0DD0E08EB2
:1014000058B120688168890707D535F8021BC1608B
:10141000E08E401EE0864FF00008E08F58B1206853
:101420008168C90707D0C0682BF8020BE08F401E07
:10143000E0874FF00108781C05D0FFF77BFBA0EB9D
:101440000900B84246D2E08E0028D5D1E08F0028AE
:10145000D2D136E0FFE7216815F8010B0873E08E62
:10146000401EE08627E000BFB8F1000F0DD0E08EEF
:1014700058B120688168890707D515F8011B0173E9
:10148000E08E401EE0864FF00008E08F58B12068E3
:101490008168C90707D0C0680BF8010BE08F401EB8
:1014A000E0874FF00108781C05D0FFF743FBA0EB65
:1014B0000900B8420ED2E08E0028D5D1E08F002876
:1014C000D2D13B46012202212046CDF8009000F007
:1014D00017FA08B103260FE04A463946204600F0C5
:1014E000F7F918B101262020606505E0A06818B959
:1014F0002068C16880680090012084F851000020B5
:1015000084F85000304631E710B5401EB0F1807FBE
:1015100001D3012010BD4FF0E02460610F2160175E
:1015200000F0BEF90020A06107202061002010BD5E
:1015300070B5040004D094F83900002510B106E01D
:10154000012070BD84F83850204600F023F8242094
:1015500084F839002068C16821F40051C160204638
:1015600000F088FA2068016921F490410161206847
:10157000416921F02A0141612068C16841F40051AC
:10158000C160E563202084F8390084F83A00002027
:1015900070BD00002DE9F04186B006461421684672
:1015A000FEF75EFE2D493068884253D12C48002456
:1015B000016841F010010160006800F01000059022
:1015C00027481438016841F001010160006869464C
:1015D00000F0010005904FF4C060009002200190DF
:1015E0000120029003200390072004901D48FFF77C
:1015F000D7F91E4D1C484FF000672860C5E90174FB
:101600004FF48068C5E9034880156C61C5E9064060
:101610002C6228466C62FFF7FFF808B1FFF718F854
:101620007563AE63114D104860357830E5E8020708
:101630004020A5E811010D4845F814496030AC611F
:10164000EC612C626C62FFF7E7F808B1FFF700F875
:101650003563AE6306B0BDE8F081000000100140C4
:10166000443802400000024040640240440100202F
:101670002DE9F843044690F839001F4616460D46FA
:10168000202850D1A5B19EB194F8380001284AD045
:10169000012084F838004FF00008C4F83C80212075
:1016A00084F83900FFF746FAA6848146E68426E0EE
:1016B0000120BDE8F883E08C401EE084A0684B4622
:1016C000B0F5805F4FF000024FF080012046009798
:1016D00003D000F025FBE8B90DE000F021FBC8B90C
:1016E00028882168C0F308004860206908B16D1C93
:1016F00005E0AD1C03E0216815F8010B4860E08CA3
:101700000028D8D14B46002240212046009700F007
:1017100007FB08B10320CCE7202084F8390084F8C7
:1017200038800020C5E70220C3E7FEE70D4808B572
:10173000016841F4800101600068002200F480002B
:10174000009011463A20FFF761FA3A20FFF752FA6B
:10175000002211464620FFF759FABDE8084046200E
:10176000FFF748BA30380240F0B587B01421684618
:10177000FEF776FD24480024016841F00101016074
:10178000016801F001010591016841F00201016069
:1017900000681E4E00F00200059001221021304624
:1017A000FFF7C2F91A4F002202213846FFF7BCF9B1
:1017B000012291023846FFF7B7F910200090012569
:1017C000CDE90154694630460394FFF7E9F8114822
:1017D0006946CDE9005038460295FFF7E1F840F23E
:1017E00002400090CDE90154694638460394FFF762
:1017F000D7F8002211460620FFF708FA0620FFF767
:10180000F9F907B0F0BD0000303802400000024096
:101810000004024000002110104810B50E4901607C
:101820004FF482714160002181600122C160C0E9F2
:101830000412520282611022C0E9072141628162D2
:101840000A21C162FFF7F8FC002803D0BDE8104070
:10185000FEF7FEBE10BD000000300140AC000020CD
:101860000C4810B50A4901600B49416000218160B4
:101870000C22C160C0E904128161C161FFF758FE0A
:10188000002803D0BDE81040FEF7E2BE10BD000006
:10189000001001400401002080841E00FEE7704714
:1018A0000907090E002806DA00F00F0000F1E02019
:1018B00080F8141D704700F1E02080F80014704794
:1018C000704700000148FFF74DBC0000AC0000204D
:1018D00038B50B46009204460022802100F010F833
:1018E000002804D0606D40F020006065032038BD02
:1018F00010B5806B0021C187C186FFF731FC10BD98
:101900002DE9F0411D4617460E460446DDF81880C5
:1019100035E0681C33D02DB1FFF70CF9A0EB0800BF
:10192000A8422CD32068416821F0E0014160606842
:10193000B0F5827F0BD1A068B0F5004F02D0B0F5B2
:10194000806F04D12068016821F040010160A06A25
:10195000B0F5005F0AD1206801684DF6FF721140B2
:1019600001602068016841F400510160012084F8A1
:101970005100002084F850000320BDE8F081206869
:10198000806836EA000004D00020B842C1D10020AF
:10199000F3E70120F9E77047FFF7D2B830B593B00D
:1019A00030216846FEF75CFC14210CA8FEF758FCB9
:1019B00019480025016841F080510160006800F07D
:1019C000805011901548016821F4404141F40041D4
:1019D00001600068022400F440401190012003904F
:1019E00010200490009406940820CDE9075054205C
:1019F000CDE9090404200B906846FFF723FA0CA9EF
:101A00000F2081E83100E002CDE90F0502210CA88A
:101A1000FFF72EF913B030BD40380240007000408F
:101A20001048016841F4700101600F48016841F0FD
:101A3000010101600C4A00210832116002680B4B61
:101A40001A400260031D0A4A1A60026822F48022CA
:101A5000026005480C300160024958068039086070
:101A60007047000088ED00E000380240FFFFF6FEFE
:101A7000103000242DE9F04104460068016921F48A
:101A80004052E168114301612168C86849F20C6263
:101A900090432369A268E5691A4363692B431A439B
:101AA0000243CA602168486920F44072A06910436B
:101AB0004861E1696425B1F5004F9748974A21686C
:101AC0004FF032083FD0914201D081427CD1FFF7E4
:101AD00077F900EBC00101EB001061688900B0FBF1
:101AE000F1F6FFF76DF900EBC00101EB0010616842
:101AF0008900B0FBF1F0B0FBF5F06FF0180148433E
:101B000006EB800108EB0110B0FBF5F000F0F006E9
:101B1000FFF756F900EBC00101EB00106168890086
:101B2000B0FBF1F0B0FBF5F006EB0016FFF748F95B
:101B300000EBC00101EB001061688900B0FBF1F718
:101B4000FFF73EF9D2E0914201D081423DD1FFF74B
:101B500037F900EBC00101EB001061684900B0FBF0
:101B6000F1F0B0FBF5F00601FFF72AF900EBC00138
:101B700001EB001061684900B0FBF1F7FFF720F9B5
:101B800000EBC00101EB001061684900B0FBF1F00F
:101B9000B0FBF5F06FF01801484307EB800108EB4C
:101BA000C100B0FBF5F000F0F80006EB4006FFF7CF
:101BB00007F900EBC00101EB001061684900B0FBC0
:101BC000F1F7FFF7FDF83CE055E0FFF7E9F800EB2F
:101BD000C00101EB001061684900B0FBF1F0B0FBFF
:101BE000F5F00601FFF7DCF800EBC00101EB001097
:101BF00061684900B0FBF1F7FFF7D2F800EBC001D4
:101C000001EB001061684900B0FBF1F0B0FBF5F0AA
:101C10006FF01801484307EB800108EBC100B0FBEF
:101C2000F5F000F0F80006EB4006FFF7B9F800EB1E
:101C3000C00101EB001061684900B0FBF1F7FFF74C
:101C4000AFF800EBC00101EB001061684900B0FB88
:101C5000F1F0B0FBF5F06FF01801484307EB80019D
:101C600008EBC100B0FBF5F000F00700216830443C
:101C70008860BDE8F081FFF793F800EBC00101EB4D
:101C8000001061688900B0FBF1F6FFF789F800EBFE
:101C9000C00101EB001061688900B0FBF1F0B0FBFE
:101CA000F5F06FF01801484306EB800108EB0110D6
:101CB000B0FBF5F000F0F006FFF772F800EBC001A2
:101CC00001EB001061688900B0FBF1F0B0FBF5F0AA
:101CD00006EB0016FFF764F800EBC00101EB001003
:101CE00061688900B0FBF1F7FFF75AF800EBC0011B
:101CF00001EB001061688900B0FBF1F0B0FBF5F07A
:101D00006FF01801484307EB800108EB0110B0FBAE
:101D1000F5F000F00F00A9E70014014000100140A9
:101D20002DE9F041984617460E460446069D1DE0F3
:101D3000681C1BD02DB1FEF7FDFEA0EB0800A842E9
:101D400014D92068C16821F4D071C160206841694C
:101D500021F001014161202084F8390084F83A0023
:101D6000002084F838000320BDE8F0812068006876
:101D700036EA000004D00020B842D9D00020F3E7B2
:101D80000120F9E7FEE700000FB4054B10B503A9E9
:101D9000044A029800F026F810BC5DF814FB00001D
:101DA000492200081800002030B5002307E004682D
:101DB00025686D06FCD5CD5C65605B1C9BB29342CB
:101DC000F5D330BD02E008C8121F08C1002AFAD1BD
:101DD00070477047002001E001C1121F002AFBD1AB
:101DE000704700002DE9FF4F8DB00F4605460026D5
:101DF00006E025280BD0DDE90F1290476D1C761CFC
:101E000028780028F5D111B03046BDE8F08F0024C5
:101E1000A246A1460122EC4900E0044315F8013F27
:101E2000203B02FA03F00842F7D128782A2810D084
:101E30006FF02F022878A0F13001092914D80AEB9D
:101E40008A0102EB410144F0020400EB010A6D1C1F
:101E5000F0E701CF5FEA000A03D544F40054CAF169
:101E6000000A44F002046D1C28782E2817D115F8BA
:101E7000010F44F004042A280ED06FF02F022878B6
:101E8000A0F1300109290AD809EB890102EB4101CF
:101E900000EB01096D1CF2E757F8049B6D1C2878D4
:101EA0006C280FD006DC4C2817D068280DD06A2883
:101EB00014D104E0742810D07A280FD10DE044F436
:101EC00000140AE044F4801401E044F440146978FA
:101ED000814202D104F580146D1C6D1C2A786E2A93
:101EE0001FD00CDC632A31D004DC002A8BD0582AA6
:101EF00011D1A3E0642A68D0692A0CD165E0732A65
:101F00002ED004DC6F2A73D0702A04D19BE0752A8E
:101F10006FD0782A6ED01046DDE90F129047761CFC
:101F200050E1C4F30250022806D0032809D0042847
:101F300001CF09D0066045E101CFF117C0E900618A
:101F400040E101CF06803DE106703BE117F8040B4C
:101F50008DF8000000208DF80100EB46012003E021
:101F600057F804BB4FF0FF3061074FF0000102D477
:101F70000DE008F10101884649450FDA8045F8DB9C
:101F80001BF808100029F4D108E008F10101884687
:101F90008142FADB1BF808100029F6D1DDE90F2396
:101FA000AAEB08008146214600F036F9304400EBE8
:101FB000080604E0DDE90F121BF8010B9047B8F1A9
:101FC0000108F7D221464846F7E00A21C4F302533C
:101FD0004FF0000B0891022B04D001CFC117032B47
:101FE00009D00AE0FF1D27F00707F7E8020108E023
:101FF00032E01FE020E000B2C117042B01D140B253
:10200000C117031E71F1000307DA4FF0000CD0EB8B
:102010000C006CEB01012D2302E0230504D52B23DA
:102020008DF82430012303E0E30701D02023F7E7F4
:10203000984658E00A2110E010210EE010204FF0E1
:10204000000B08900CE010214FF0000B44F004044A
:102050004FF00809089103E008214FF0000B0891A8
:10206000C4F30253022B04D001CF0021032B06D06E
:1020700006E0FF1D27F00707F7E8020103E080B242
:10208000042B00D1C0B24FF0000823072BD5702AD3
:1020900007D0DDF820C08CF0100C5CEA0B0C05D0EA
:1020A0000EE040238DF82430012308E050EA0103BC
:1020B00006D030238DF824308DF825200223984651
:1020C000DDF820C08CF0080C5CEA0B0C0BD150EA58
:1020D000010301D1630706D530238DF824304FF07A
:1020E0000108A9F10109582A04D038A20B9208AAC4
:1020F0000A920BE03AA2F9E75B46089AFEF766F807
:102100000B9B9B5C0A9A521E0A92137050EA0102C2
:10211000F2D10A98ADEB000000F1200B600702D568
:1021200024F4803401E04FF00109D94502DDA9EB28
:102130000B0000E0002000EB0B0141440890AAEBEB
:10214000010AE00306D4DDE90F232146504600F0E2
:1021500063F806444FF0000908E009A911F80900E6
:10216000DDE90F12904709F10109761CC145F4DB46
:10217000E0030CD5DDE90F232146504600F04CF872
:10218000064404E0DDE90F1230209047761C0899E0
:10219000481E08900029F5DC08E00A980A990078A2
:1021A000491C0A91DDE90F129047761CBBF1000132
:1021B000ABF1010BF1DC21465046DDE90F2300F0C5
:1021C00019F806446D1C1BE6092801003031323332
:1021D0003435363738396162636465660000000063
:1021E000303132333435363738394142434445464D
:1021F000000000002DE9F041044600251E46174668
:10220000880404D405E039462020B0476D1C641EC4
:10221000F9D52846BDE8F0812DE9F04104460025B6
:102220001E469046C80301D5302700E020278804C9
:1022300004D505E041463846B0476D1C641EF9D50B
:102240002846BDE8F081000013B54FF6FF73012268
:1022500069460248FFF70CFA00981CBD04010020F3
:10226000FEF776FCFFF79AFBFFF77EFAFFF75EFAC0
:10227000FFF7F6FAFFF7D0FA2CA0FFF785FD2F4CF9
:10228000002640216660668026702D48FDF7E8FF35
:102290000120FEF72BFBFEF7E3F80120FEF726FBFB
:1022A000274D4E3D20780128FCD125484E214E383F
:1022B000FDF7D6FFFD212970A62169704E21A97076
:1022C0000421E9706921297118221D49681DFDF753
:1022D000AEFF002000EB40012944401C4A79082849
:1022E00082F080024A71F5DB552085F8470060686E
:1022F0004E22401C010E606085F84810010C85F8E4
:102300004910010A85F84A1085F84B006088401C86
:102310006080010A85F84C10094985F84D004E3956
:102320000848FFF741FD2670BCE7000066343031F5
:10233000207465737420310D0A0000000000002035
:102340006A00002004010020000610160006101686
:102350000000000000000000010203040607080955
:102360000000000001020304882300080000002090
:102370001C000000C41D0008A42300081C0000204D
:10238000EC050000D41D0008000000000000000063
:102390000100000010000000000000000024F40014
:0423A0000000000039
:040000050800019559
:00000001FF
